S013000042616C616E636520426F742E7372656326
S113000088C00000A7C00000A5C00000A3C0000075
S1130010A1C000009FC000009DC000009BC0000064
S113002099C0000097C0000095C0000093C0000074
S113003091C000008FC000008DC000008BC0000084
S113004089C0000087C0000085C0000083C0000094
S113005081C000007FC000007DC000007BC00000A4
S113006079C00000D8C4000075C0000073C000004F
S113007071C000006FC000006DC000006BC00000C4
S113008069C0000067C0000065C0000063C00000D4
S113009061C000005FC000005DC000005BC00000E4
S11300A059C0000057C0000055C0000053C00000F4
S11300B051C0000072C000004DC000004BC00000E1
S11300C049C0000047C0000045C0000043C0000014
S11300D041C000003FC000003DC000003BC0000024
S11300E039C00000084AD73B3BCE016E84BCBFFD3B
S11300F0C12F3D6C74319ABD56833DDA3D00C77FF4
S113010011BED9E4BB4C3E916BAAAABE000000808C
S11301103F0011241FBECFEFD1E2DEBFCDBF00E010
S11301200CBF12E0A0E0B2E0EEEFF8E100E00BBF9C
S113013002C007900D92A031B107D9F722E0A0E1E7
S1130140B2E001C01D92A635B207E1F70E94B908DA
S11301500C947D0C55CF10923802E1EAF0E0108245
S113016086EC8093A50087E68093A4001092A900F2
S11301701092A8001092AB001092AA001092AD0049
S11301801092AC001092A7001092A6001092A0004A
S11301901092A20081E0808308951F920F920FB6FF
S11301A00F9211248F93809138028F5F80933802CD
S11301B086EC8093A50087E68093A4008F910F902E
S11301C00FBE0F901F901895F894C5DF81E08093BF
S11301D07200789408950F931F93CF93DF93EC01EB
S11301E0009138026091A4007091A500CB01A0E0B9
S11301F0B0E0BC01CD016756764C8109910929E92B
S113020039E340E050E00E941C0C10E0020F131F81
S1130210CD2B09F4D9DFC801DF91CF911F910F9144
S1130220089586E69EE00197F1F700004098419812
S113023080E388B9429A8FEF97E40197F1F700C001
S11302400000429886E69EE00197F1F7000040988E
S1130250419880E388B9429A8FEF97E40197F1F7C8
S113026000C00000429886E69EE00197F1F7000086
S11302704098419880E388B9429A8FEF97E40197B8
S1130280F1F700C00000429886E69EE00197F1F77E
S113029000004098419880E288B9429A8FEF97E431
S11302A00197F1F700C000004298089598B19F703B
S11302B098B998B1282F207F922B98B940984198EB
S11302C0429AEFEFF7E43197F1F700C0000042984B
S11302D098B19F7098B998B18295807F892B88B91D
S11302E040984198429A8FEF97E40197F1F700C044
S11302F000004298089586E69EE00197F1F7000019
S113030088E2D4DF81E0D2DF86E0D0DF8EE0CEDF8A
S113031080E8CCCF089598B19F7098B998B1282FF0
S1130320207F922B98B9409A4198429AEFEFF7E4D4
S11303303197F1F700C00000429898B19F7098B9C6
S113034098B18295807F892B88B9409A4198429AC6
S11303508FEF97E40197F1F700C0000042980895E9
S113036080E8A4CF0895CF93DF93EC01888188239C
S113037029F02196D0DF89918111FCCFDF91CF91B3
S11303800895823069F018F4813031F00895833093
S113039059F0843069F008958FE7860F87CF089568
S11303A08FEB860F83CF089583E9860F7FCF08955F
S11303B083ED860F7BCF08950F931F93CF93DF9325
S11303C08A01E901882311F0611102C0C9DF01C06B
S11303D0D8DFC530D10509F0D5C0980132952295F2
S11303E02F7023273F702327A7E4B3E00E94380C23
S11303F0969587959695879596958795C0969093AB
S113040033028093320287DF98013695279536951B
S1130410279536952795A5ECB0E20E94380CAC01DF
S1130420529542954F7045275F704527509335028A
S1130430409334029A01ADECBCEC0E94380C9695C2
S1130440879596958795969587959C01220F331FDE
S1130450880F991F880F991F880F991F820F931F68
S1130460481B590BCA01C0969093510280935002C5
S113047052DF04C0C330D10509F089C09801369514
S1130480279536952795ABE7B4E10E94380CAC016B
S11304905695479550933502409334029A01ADEC3A
S11304A0BCEC0E94380C9695879596958795969501
S11304B087959C01220F331F880F991F880F991F5E
S11304C0880F991F820F931F481B590BCA01C096AE
S11304D090934902809348021EDF9801ADECBCEC76
S11304E00E94380CAC0156954795569547955695FC
S11304F0479550933502409334029A010E94380C78
S11305009695879596958795969587959C01220F44
S1130510331F880F991F880F991F880F991F820F07
S1130520931F481B590BCA01C09690933E028093B7
S11305303D02F1DE03C0C130D105F9F49801ADEC00
S1130540BCEC0E94380C9695879596958795969560
S113055087959C01220F331F880F991F880F991FBD
S1130560880F991F820F931F081B190BC801C0968F
S113057090934F0280934E02CEDE269764F085E47A
S1130580CADE09C0C430D10509F074CF3DCFC230F2
S1130590D10589F6A2CFDF91CF911F910F910895D4
S11305A087B1876F87B988B1807888B90895ECEBF3
S11305B0F0E0108280E18093B8001092B9001092AC
S11305C0BA0084E08083089594EA9093BC00ECEB35
S11305D0F0E090819923ECF7EFEFFFE83197F1F722
S11305E000C0000096EA9093BB0094E89093BC008E
S11305F0ECEBF0E090819923ECF7EFEFFFE8319713
S1130600F1F700C000006093BB0094E89093BC0035
S1130610ECEBF0E090819923ECF7EFEFFFE83197F2
S1130620F1F700C000008093BB0084E88093BC0015
S1130630ECEBF0E080818823ECF78FEF9FE80197E3
S1130640F1F700C0000084E98093BC00089594EAA7
S11306509093BC00ECEBF0E090819923ECF796EAE0
S11306609093BB0094E89093BC00ECEBF0E0908195
S11306709923ECF78093BB0084E88093BC00ECEBF7
S1130680F0E080818823ECF784EA8093BC00ECEBF3
S1130690F0E080818823ECF787EA8093BB0084E84C
S11306A08093BC00ECEBF0E080818823ECF784E8D5
S11306B08093BC00ECEBF0E080818823ECF7EBEB5B
S11306C0F0E08081108294E89093BC00ECEBF0E0C1
S11306D090819923ECF70895F89462DFA2DD0BDE94
S11306E066DF78940895EF92FF920F931F93CF9350
S11306F0DF93F82EE62EEA018901DD238CF441DE36
S113070080E092E030DEAE01DD2324F44427552757
S11307104C1B5D0B61E06E0D98018F2D4DDE0AC000
S113072030DE82E092E01FDE61E06E0D9801AE01E2
S11307308F2D42DEDF91CF911F910F91FF90EF90AB
S11307400895CADF6DE280E03FDF6DE288E03CCFD0
S11307500895CF92DF92EF92FF921F93CF93DF938E
S113076082E375DF83E373DF84E371DFD82F85E3EE
S11307706EDFF82E86E36BDF182F87E368DF6D2FBB
S113078070E0C82FD0E0DC2FCC277F29882777FDA5
S11307908095982FF8D66B017C01BE01612B8827C8
S11307A077FD8095982FEFD69B01AC01C701B60168
S11307B04FD622D626EE3FE44FE054E4C4D7B0D659
S11307C0CB01DF91CF911F91FF90EF90DF90CF90FD
S11307D0089594EA9093BC00ECEBF0E090819923A7
S11307E0ECF7EFEFFFE83197F1F700C0000092ED6E
S11307F09093BB0094E89093BC00ECEBF0E0908104
S11308009923ECF7EFEFFFE83197F1F700C0000010
S11308106093BB0094E89093BC00ECEBF0E0908113
S11308209923ECF7EFEFFFE83197F1F700C00000F0
S11308308093BB0084E88093BC00ECEBF0E0808103
S11308408823ECF78FEF9FE80197F1F700C00000D1
S113085084E98093BC00089594EA9093BC00ECEB87
S1130860F0E090819923ECF792ED9093BB0094E82B
S11308709093BC00ECEBF0E090819923ECF780932B
S1130880BB0084E88093BC00ECEBF0E0808188231B
S1130890ECF784EA8093BC00ECEBF0E080818823E1
S11308A0ECF783ED8093BB0084E88093BC00ECEB11
S11308B0F0E080818823ECF784E88093BC00ECEBC3
S11308C0F0E080818823ECF7EBEBF0E0808110828C
S11308D094E89093BC00ECEBF0E090819923ECF762
S11308E0089560E28FE075CF08954F925F926F9202
S11308F07F928F929F92AF92BF92CF92DF92EF92AC
S1130900FF92CF93DF9300D01F92CDB7DEB7298338
S11309103A834B835C838090100290901102A090E4
S11309201202B0901302A501940101D56B017C0160
S11309309B01AC01FDD420E030E040EF51E403D74B
S11309402B013C0120E030E040EF51E4C701B60147
S1130950FAD620E030E040EF51E4F5D62AE037ED56
S113096043E25CE3F0D620E030E0A901E1D49B014E
S1130970AC01C301B201DCD429813A814B815C8191
S1130980D7D42AE037ED43E25CE3DDD69B01AC012A
S1130990C501B401CDD46093100270931102809309
S11309A01202909313020F900F900F900F90DF910B
S11309B0CF91FF90EF90DF90CF90BF90AF909F903A
S11309C08F907F906F905F904F900895CF9388E2BF
S11309D043DFC82F89E240DF2C2F30E0A901582BD8
S11309E0CA0164E670E015D7882777FD8095982FB3
S11309F0CAD5CF910895E1ECF0E010821092C000C6
S1130A0086E08093C2008FE58093C4001092C500F5
S1130A1088E9808308951F920F920FB60F921124D4
S1130A200BB60F922F933F934F935F936F937F93E4
S1130A308F939F93AF93BF93EF93FF938091C600DF
S1130A40809347028733B9F4809152029091530204
S1130A50A0915402B09155028093220290932302F4
S1130A60A0932402B093250281E090E090932102A8
S1130A7080932002B7C08833B9F4809143029091E7
S1130A804402A0914502B0914602809322029093C1
S1130A902302A0932402B093250282E090E0909375
S1130AA02102809320029EC08933B9F480912E02E2
S1130AB090912F02A0913002B091310280932202D2
S1130AC090932302A0932402B093250283E090E044
S1130AD0909321028093200285C08033B9F48091E1
S1130AE0180290911902A0911A02B0911B028093EE
S1130AF0220290932302A0932402B093250284E05F
S1130B0090E090932102809320026CC0813699F486
S1130B1080E090E0A8ECB1E4809314029093150275
S1130B20A0931602B09317026AE082E02ADC84E004
S1130B3092E019DC57C08337B9F410921402109272
S1130B4015021092160210921702109218021092B7
S1130B50190210921A0210921B0268E082E011DC62
S1130B6086E092E000DC3EC0843699F480E090E0B8
S1130B70A8ECB1EC8093140290931502A093160292
S1130B80B09317026AE082E0FCDB8AE092E0EBDBE0
S1130B9029C0873799F480E090E0A0E8BFE3809310
S1130BA0180290931902A0931A02B0931B0268E0F2
S1130BB082E0E7DB8CE092E0D6DB14C0883791F466
S1130BC080E090E0A0E8BFEB8093180290931902B4
S1130BD0A0931A02B0931B0268E082E0D2DB8EE09D
S1130BE092E0C1DB809147028133B1F420E030E030
S1130BF040E85FE360912202709123028091240215
S1130C009091250295D360932202709323028093DE
S1130C1024029093250277C08233B1F420E030E0BF
S1130C2040EA50E4609122027091230280912402F0
S1130C30909125027DD360932202709323028093C6
S1130C402402909325025FC08433B1F420E030E0A5
S1130C5040E85FE3609122027091230280912402B4
S1130C609091250264D360932202709323028093AF
S1130C7024029093250247C08533B1F420E030E08C
S1130C8040EA50E460912202709123028091240290
S1130C90909125024CD36093220270932302809397
S1130CA02402909325022FC08333B1F42DEC3CEC45
S1130CB04CEC5DE360912202709123028091240246
S1130CC09091250235D3609322027093230280937E
S1130CD024029093250217C08633A9F42DEC3CEC32
S1130CE04CEC5DE360912202709123028091240216
S1130CF0909125021CD36093220270932302809367
S1130D002402909325028091200290912102813047
S1130D109105E9F4609122027091230280912402EA
S1130D20909125026093520270935302809354026F
S1130D309093550220E030E040E251E404D5F5D32D
S1130D4024E030E0AB0161E081E036DB60C082305A
S1130D509105E9F4609122027091230280912402AA
S1130D60909125026093430270934402809345025C
S1130D709093460220E030E040E251E4E4D4D5D33D
S1130D8024E030E0AB0166E081E016DB40C0833054
S1130D909105E9F46091220270912302809124026A
S1130DA09091250260932E0270932F02809330025B
S1130DB09093310220E030E040E251E4C4D4B5D352
S1130DC024E030E0AB016BE081E0F6DA20C0049768
S1130DD0F1F4609122027091230280912402909197
S1130DE02502609318027093190280931A0290935B
S1130DF01B0220E030E040E251E4A5D491D323E08B
S1130E0030E0AB0161E070E082E090E06CDCFF91E7
S1130E10EF91BF91AF919F918F917F916F915F916E
S1130E204F913F912F910F900BBE0F900FBE0F90DB
S1130E301F901895AAE0B1E08C91846E8C93EBE03E
S1130E40F1E08081887180838C9188618C938081AA
S1130E50886180830895E1E2F1E010828FEF80934E
S1130E60250191E090932401109229018093280197
S1130E7010922B0180932A0181EA80932001109221
S1130E8022018DE080830895EBE0F1E09081987178
S1130E90892B8083089580EAF7CF089584E4F4CF02
S1130EA00895F8947DDBBDD926DAC4DFD4DF7894C5
S1130EB008958F929F92AF92BF92CF92DF92EF925A
S1130EC0FF92CF93DF93EC011092290110922B0132
S1130ED0C0901402D0901502E0901602F090170210
S1130EE0BC01882777FD8095982F4DD34B015C0179
S1130EF0A701960160E070E081E693E418D29B01BB
S1130F00AC01C501B401A0D2181684F0BE01625E22
S1130F107F4F882777FD8095982F35D39B01AC01AF
S1130F20C701B60105D2FCD2EB0104C0DD2314F4E1
S1130F30C0E0D0E0C0932A01C0901402D090150202
S1130F40E0901602F0901702BE01882777FD809585
S1130F50982F19D34B015C0120E030E04FE753E4B4
S1130F60C701B601E5D19B01AC01C501B401E0D3D1
S1130F7018164CF4A701960160E070E08FE793E443
S1130F80D6D1CED205C0BE01772314F460E070E060
S1130F9060932801DF91CF91FF90EF90DF90CF9085
S1130FA0BF90AF909F908F900895CF92DF92EF9271
S1130FB0FF92209118023091190240911A02509127
S1130FC01B0260914A0270914B0280914C029091F5
S1130FD04D02ADD16B017C0160931C0270931D0224
S1130FE080931E0290931F022AE037ED43E25CE3F4
S1130FF060914302709144028091450290914602AF
S1131000A2D39B01AC01C701B6019DD320912A0252
S113101030912B0240912C0250912D0289D16B0109
S11310207C0120E030E04FE753E482D388236CF066
S113103080E090E0AFE7B3E480932A0290932B0220
S1131040A0932C02B0932D021EC020E030E04FE7A5
S113105053ECC701B601F8D118164CF4C0922A0219
S1131060D0922B02E0922C02F0922D020CC080E070
S113107090E0AFE7B3EC80932A0290932B02A09305
S11310802C02B0932D0281E090E0A5D80A972CF1B0
S1131090C0901C02D0901D02E0901E02F0901F022E
S11310A020913F023091400240914102509142020E
S11310B0C701B6013CD16093260270932702809346
S11310C0280290932902C0923F02D0924002E092FB
S11310D04102F092420278D808C01092260210927F
S11310E02702109228021092290220911C023091AA
S11310F01D0240911E0250911F0260915202709194
S1131100530280915402909155021DD320912A02DA
S113111030912B0240912C0250912D0209D16B0188
S11311207C012DEC3CEC4CEC5DE360912E02709163
S11311302F02809130029091310205D32091260232
S1131140309127024091280250912902FCD29B0140
S1131150AC01C701B601ECD06093390270933A0236
S113116080933B0290933C02FF90EF90DF90CF90EE
S11311700895E7DAB6DB95DE3EDC26D88AE999E9FC
S1131180A1E3B1E48093520290935302A0935402DA
S1131190B09355028DEC9CECA4E1B1E4809343023E
S11311A090934402A0934502B09346028AE999E9D8
S11311B0A9ECB0E480932E0290932F02A093300206
S11311C0B093310224E030E04FE650E061E081E08A
S11311D0F3D820E030E040E251E4609143027091A2
S11311E044028091450290914602ADD29ED124E002
S11311F030E0AB0166E081E0DFD820E030E040E29F
S113120051E460912E0270912F02809130029091EE
S1131210310299D28AD124E030E0AB016BE081E065
S1131220CBD877247A9400E0C6ECD0E01FEF91DAB3
S11312307C01CCDB4B015C01B701882777FD8095ED
S1131240982FA1D12DEC3CEC4CEC5DE37CD2A501B4
S113125094014BDB4B015C0160934A0270934B0297
S113126080934C0290934D02A0DEC0903902D0903E
S11312703A02E0903B02F0903C0220E030E0A90109
S1131280C701B60155D218168CF420E030E040EACC
S113129051E4C701B6014CD048D1CB016F3F710571
S11312A010F0872D902F05DEF6DD18C020E030E029
S11312B0A901C701B601C8D0882384F4A701960107
S11312C060E070E080EA91E432D02FD1CB016F3F2F
S11312D0710510F0872D902FECDDE0DD188386E694
S11312E09EE00197F1F7000020E030E048EC52E482
S11312F0C501B4011DD019D1688386E69EE001972B
S1131300F1F7000020E030E040E05FE36091390253
S113131070913A0280913B0290913C0214D220E0F9
S113132030E04EEF52E404D000D1688380CF5058AF
S1131330BB27AA270ED0C2C1B3D130F0B8D120F058
S113134031F49F3F11F41EF483C10EF4E095E7FBE2
S113135079C1E92FC4D180F3BA17620773078407F0
S1131360950718F071F49EF5DCC10EF4E0950B2E90
S1131370BA2FA02D0B01B90190010C01CA01A001E3
S11313801124FF27591B99F0593F50F4503E68F13E
S11313901A16F040A22F232F342F4427585FF3CF7F
S11313A0469537952795A795F0405395C9F77EF450
S11313B01F16BA0B620B730B840BBAF09150A1F099
S11313C0FF0FBB1F661F771F881FC2F70EC0BA0F1F
S11313D0621F731F841F48F4879577956795B795A7
S11313E0F7959E3F08F0B3CF9395880F08F099279F
S11313F0EE0F979587950895DF93DD27B92FBF7773
S113140040E85FE31616170648075B0710F4D92F68
S113141093D19F938F937F936F93F8D1E4EEF0E091
S11314201AD14CD12F913F914F915F9198D1DD23E7
S113143049F09058A2EA2AED3FE049EC5FE3D07806
S11314405D2787DFDF913AC1D9D008F481E00895A0
S11314500CD034C12CD140F023D130F021F45F3FC3
S113146019F0F0C051115EC1F3C039D198F399233A
S1131470C9F35523B1F3951B550BBB27AA27621754
S11314807307840738F09F5F5F4F220F331F441F99
S1131490AA1FA9F333D00E2E3AF0E0E830D09150D1
S11314A05040E695001CCAF729D0FE2F27D0660FBE
S11314B0771F881FBB1F261737074807AB07B0E8FD
S11314C009F0BB0B802DBF01FF2793585F4F2AF013
S11314D09E3F510568F0B6C025C15F3FECF3983ECE
S11314E0DCF3869577956795B795F7959F5FC9F770
S11314F0880F911D9695879597F90895E1E0660FF9
S1131500771F881FBB1F621773078407BA0720F071
S1131510621B730B840BBA0BEE1F88F7E0950895DA
S113152004D06894B111FEC00895E1D088F09F57AB
S113153090F0B92F9927B751A0F0D1F0660F771F1B
S1131540881F991F1AF0BA95C9F712C0B13081F0FB
S1131550E8D0B1E00895E5C0672F782F8827B85FF9
S113156039F0B93FCCF3869577956795B395D9F75C
S11315703EF490958095709561957F4F8F4F9F4F66
S11315800895E89409C097FB3EF490958095709572
S113159061957F4F8F4F9F4F9923A9F0F92F96E9BB
S11315A0BB279395F695879577956795B795F11130
S11315B0F8CFFAF4BB0F11F460FF1BC06F5F7F4FCD
S11315C08F4F9F4F16C0882311F096E911C07723DF
S11315D021F09EE8872F762F05C0662371F096E8E8
S11315E0862F70E060E02AF09A95660F771F881FB7
S11315F0DAF7880F9695879597F90895990F00085B
S1131600550FAA0BE0E8FEEF16161706E807F907D0
S1131610C0F012161306E407F50798F0621B730B6B
S1131620840B950B39F40A2661F0232B242B252BEC
S113163021F408950A2609F4A140A6958FEF811D8F
S1131640811D089597F99F6780E870E060E0089530
S11316509FEF80EC0895DF93CF931F930F93FF9236
S1131660EF92DF927B018C01689405C0DA2EEF01C2
S113167076D0FE01E894A591259135914591559137
S1131680AEF3EF0166DEFE019701A801DA9479F763
S1131690DF90EF90FF900F911F91CF91DF9108950C
S11316A000240A941616170618060906089500243D
S11316B00A9412161306140605060895092E0394B7
S11316C0000C11F4882352F0BB0F40F4BF2B11F42B
S11316D060FF04C06F5F7F4F8F4F9F4F089557FD8A
S11316E09058440F551F59F05F3F71F04795880F8C
S11316F097FB991F61F09F3F79F087950895121623
S113170013061406551FF2CF4695F1DF08C01616CE
S113171017061806991FF1CF86957105610508947F
S11317200895E894BB2766277727CB0197F9089596
S113173065DF08F48FEF08959B01AC0160E070E071
S113174080E89FE385CE0BD0B9CFAADF28F0AFDFC6
S113175018F0952309F076CF7BCF1124E3CFBFDFB8
S1131760A0F3959FD1F3950F50E0551F629FF001B0
S1131770729FBB27F00DB11D639FAA27F00DB11D09
S1131780AA1F649F6627B00DA11D661F829F222792
S1131790B00DA11D621F739FB00DA11D621F839F19
S11317A0A00D611D221F749F3327A00D611D231FEF
S11317B0849F600D211D822F762F6A2F11249F573D
S11317C050408AF0E1F088234AF0EE0FFF1FBB1F60
S11317D0661F771F881F91505040A9F79E3F5105FF
S11317E070F030CF9FCF5F3FECF3983EDCF38695EB
S11317F077956795B795F795E7959F5FC1F7FE2BAA
S1131800880F911D9695879597F908959B01AC01D2
S11318109ACF97FB072E16F4009406D077FD08D0D4
S113182036D007FC05D03EF4909581959F4F0895DE
S1131830709561957F4F0895052E97FB16F40094DB
S11318400FD057FD05D037D007FC02D046F408C0AE
S113185050954095309521953F4F4F4F5F4F0895D8
S113186090958095709561957F4F8F4F9F4F089508
S1131870A29FB001B39FC001A39F700D811D1124CD
S1131880911DB29F700D811D1124911D0895AA1BF5
S1131890BB1B51E107C0AA1FBB1FA617B70710F057
S11318A0A61BB70B881F991F5A95A9F78095909589
S11318B0BC01CD010895A1E21A2EAA1BBB1BFD0198
S11318C00DC0AA1FBB1FEE1FFF1FA217B307E4071B
S11318D0F50720F0A21BB30BE40BF50B661F771F73
S11318E0881F991F1A9469F7609570958095909553
S11118F09B01AC01BD01CF010895F894FFCF18
S11318FE2D002B0052004F204F004C00460042009A
S9030000FC
