S01800004763634170706C69636174696F6E31322E7372656328
S11300000C9489000C94AA000C94AA000C94AA00E5
S11300100C94AA000C94AA000C94AA000C94AA00B4
S11300200C94AA000C94AA000C94AA000C94AA00A4
S11300300C94AA000C94AA000C94AA000C94AA0094
S11300400C94AA000C94AA000C94AA000C94AA0084
S11300500C94AA000C94AA000C94AA000C94AA0074
S11300600C94AA000C943C060C94AA000C94AA00CC
S11300700C94AA000C94AA000C94AA000C94AA0054
S11300800C94AA000C94AA000C94AA000C94AA0044
S11300900C94AA000C94AA000C94AA000C94AA0034
S11300A00C94AA000C94AA000C94AA000C94AA0024
S11300B00C94AA000C94CE000C94AA000C94AA00F0
S11300C00C94AA000C94AA000C94AA000C94AA0004
S11300D00C94AA000C94AA000C94AA000C94AA00F4
S11300E00C94AA00084AD73B3BCE016E84BCBFFDEA
S11300F0C12F3D6C74319ABD56833DDA3D00C77FF4
S113010011BED9E4BB4C3E916BAAAABE000000808C
S11301103F0011241FBECFEFD1E2DEBFCDBF00E010
S11301200CBF12E0A0E0B2E0E4E0F9E100E00BBFB4
S113013002C007900D92A430B107D9F722E0A4E0E1
S1130140B2E001C01D92AA34B207E1F70E949B08F5
S11301500C94800C0C94000010922C02E1EAF0E064
S1130160108286EC8093A50087E68093A400109209
S1130170A9001092A8001092AB001092AA0010924D
S1130180AD001092AC001092A7001092A60010923D
S1130190A0001092A20081E0808308951F920F9224
S11301A00FB60F9211248F9380912C028F5F80934E
S11301B02C0286EC8093A50087E68093A4008F919F
S11301C00F900FBE0F901F901895F8940E94AC00EA
S11301D081E080937200789408950F931F93CF93D6
S11301E0DF93EC0100912C026091A4007091A500B2
S11301F0CB01A0E0B0E0BC01CD016756764C81098B
S1130200910929E939E340E050E00E941C0C10E018
S1130210020F131FCD2B11F40E94E500C801DF91DA
S1130220CF911F910F91089586E69EE00197F1F713
S113023000004098419880E388B9429A8FEF97E490
S11302400197F1F700C00000429886E69EE001970E
S1130250F1F700004098419880E388B9429A8FEF03
S113026097E40197F1F700C00000429886E69EE00B
S11302700197F1F700004098419880E388B9429AC9
S11302808FEF97E40197F1F700C00000429886E6EB
S11302909EE00197F1F700004098419880E288B908
S11302A0429A8FEF97E40197F1F700C0000042985B
S11302B0089598B19F7098B998B1282F207F922BF8
S11302C098B940984198429AEFEFF7E43197F1F7E3
S11302D000C00000429898B19F7098B998B1829577
S11302E0807F892B88B940984198429A8FEF97E490
S11302F00197F1F700C000004298089586E69EE059
S11303000197F1F7000088E20E94590181E00E9400
S1130310590186E00E9459018EE00E94590180E84B
S11303200E945901089598B19F7098B998B1282FE7
S1130330207F922B98B9409A4198429AEFEFF7E4C4
S11303403197F1F700C00000429898B19F7098B9B6
S113035098B18295807F892B88B9409A4198429AB6
S11303608FEF97E40197F1F700C0000042980895D9
S113037080E80E9459010895CF93DF93EC018881AE
S1130380882331F021960E94930189918111FBCF3A
S1130390DF91CF910895823071F018F4813031F0FB
S11303A00895833069F0843081F008958FE7860FD3
S11303B00E94590108958FEB860F0E9459010895F8
S11303C083E9860F0E945901089583ED860F0E94E8
S11303D0590108950F931F93CF93DF938A01E90185
S11303E0882311F0611103C00E94B80102C00E9469
S11303F0CB01C530D10509F0DBC0980132952295B7
S11304002F7023273F702327A7E4B3E00E943B0CFF
S1130410969587959695879596958795C09690938A
S11304202702809326020E9493019801369527950E
S11304303695279536952795A5ECB0E20E943B0C9E
S1130440AC01529542954F7045275F7045275093F4
S11304502902409328029A01ADECBCEC0E943B0CAB
S11304609695879596958795969587959C01220FE5
S1130470331F880F991F880F991F880F991F820FA8
S1130480931F481B590BCA01C09690934502809351
S113049044020E94930104C0C330D10509F08DC009
S11304A098013695279536952795ABE7B4E10E94D8
S11304B03B0CAC0156954795509329024093280272
S11304C09A01ADECBCEC0E943B0C969587959695F1
S11304D08795969587959C01220F331F880F991F46
S11304E0880F991F880F991F820F931F481B590B60
S11304F0CA01C09690933D0280933C020E949301EE
S11305009801ADECBCEC0E943B0CAC0156954795B0
S1130510569547955695479550932902409328023E
S11305209A010E943B0C969587959695879596958A
S113053087959C01220F331F880F991F880F991FDD
S1130540880F991F820F931F481B590BCA01C0962D
S113055090933202809331020E94930103C0C13010
S1130560D10501F59801ADECBCEC0E943B0C9695CD
S1130570879596958795969587959C01220F331FAD
S1130580880F991F880F991F880F991F820F931F37
S1130590081B190BC801C096909343028093420232
S11305A00E94930126976CF085E40E94930109C090
S11305B0C430D10509F070CF38CFC230D10579F6F7
S11305C09FCFDF91CF911F910F91089587B1876FCE
S11305D087B988B1807888B90895ECEBF0E010828F
S11305E080E18093B8001092B9001092BA0084E0C0
S11305F08083089594EA9093BC00ECEBF0E0908142
S11306009923ECF7EFEFFFE83197F1F700C0000012
S113061096EA9093BB0094E89093BC00ECEBF0E076
S113062090819923ECF7EFEFFFE83197F1F700C0E1
S113063000006093BB0094E89093BC00ECEBF0E006
S113064090819923ECF7EFEFFFE83197F1F700C0C1
S113065000008093BB0084E88093BC00ECEBF0E0E6
S113066080818823ECF78FEF9FE80197F1F700C0B2
S1130670000084E98093BC00089594EA9093BC0040
S1130680ECEBF0E090819923ECF796EA9093BB00B1
S113069094E89093BC00ECEBF0E090819923ECF7A4
S11306A08093BB0084E88093BC00ECEBF0E0808195
S11306B08823ECF784EA8093BC00ECEBF0E08081C3
S11306C08823ECF787EA8093BB0084E88093BC001E
S11306D0ECEBF0E080818823ECF784E88093BC00A5
S11306E0ECEBF0E080818823ECF7EBEBF0E0808129
S11306F0108294E89093BC00ECEBF0E09081992395
S1130700ECF70895F8940E94E6020E9414010E94F6
S11307107E010E94ED0278940895EF92FF920F9368
S11307201F93CF93DF93F82EE62EEA018901DD2390
S1130730A4F40E94CB0180E092E00E94BC01AE01CF
S1130740DD2324F4442755274C1B5D0B61E06E0D1B
S113075098018F2D0E94EA010DC00E94CB0182E016
S113076092E00E94BC0161E06E0D9801AE018F2DF4
S11307700E94EA01DF91CF911F910F91FF90EF90BA
S113078008950E9482036DE280E00E94FA026DE205
S113079088E00E94FA020895CF92DF92EF92FF92CE
S11307A01F93CF93DF9382E30E943D0383E30E9470
S11307B03D0384E30E943D03D82F85E30E943D035B
S11307C0F82E86E30E943D03182F87E30E943D0321
S11307D06D2F70E0C82FD0E0DC2FCC277F2988272D
S11307E077FD8095982F0E94C20A6B017C01BE019F
S11307F0612B882777FD8095982F0E94C20A9B0160
S1130800AC01C701B6010E94270A0E94FB0926EE2B
S11308103FE44FE054E40E94A20B0E948F0ACB01F4
S1130820DF91CF911F91FF90EF90DF90CF900895CB
S113083094EA9093BC00ECEBF0E090819923ECF700
S1130840EFEFFFE83197F1F700C0000092ED9093CD
S1130850BB0094E89093BC00ECEBF0E0908199230A
S1130860ECF7EFEFFFE83197F1F700C00000609379
S1130870BB0094E89093BC00ECEBF0E090819923EA
S1130880ECF7EFEFFFE83197F1F700C00000809339
S1130890BB0084E88093BC00ECEBF0E0808188230B
S11308A0ECF78FEF9FE80197F1F700C0000084E9AF
S11308B08093BC00089594EA9093BC00ECEBF0E0C4
S11308C090819923ECF792ED9093BB0094E8909378
S11308D0BC00ECEBF0E090819923ECF78093BB0033
S11308E084E88093BC00ECEBF0E080818823ECF793
S11308F084EA8093BC00ECEBF0E080818823ECF781
S113090083ED8093BB0084E88093BC00ECEBF0E0C3
S113091080818823ECF784E88093BC00ECEBF0E062
S113092080818823ECF7EBEBF0E08081108294E87F
S11309309093BC00ECEBF0E090819923ECF70895E0
S113094060E28FE00E94180408954F925F926F92C4
S11309507F928F929F92AF92BF92CF92DF92EF924B
S1130960FF92CF93DF9300D01F92CDB7DEB72983D8
S11309703A834B835C838090040290900502A0909C
S11309800602B0900702A50194010E9496096B012A
S11309907C019B01AC010E94970920E030E040EF0C
S11309A051E40E94A20B2B013C0120E030E040EF17
S11309B051E4C701B6010E94A20B20E030E040EFF1
S11309C051E40E94A20B2AE037ED43E25CE30E946B
S11309D0A20B20E030E0A9010E9497099B01AC0121
S11309E0C301B2010E94970929813A814B815C813C
S11309F00E9497092AE037ED43E25CE30E94A20BD0
S1130A009B01AC01C501B4010E94970960930402E3
S1130A107093050280930602909307020F900F9043
S1130A200F900F90DF91CF91FF90EF90DF90CF90D8
S1130A30BF90AF909F908F907F906F905F904F90FA
S1130A400895CF9388E20E945B04C82F89E20E9434
S1130A505B042C2F30E0A901582BCA0164E670E036
S1130A600E94080C882777FD8095982F0E94C20A5F
S1130A70CF910895CF92DF92EF92FF9220910C02D2
S1130A8030910D0240910E0250910F0260913E028E
S1130A9070913F0280914002909141020E94960918
S1130AA06B017C0160931002709311028093120217
S1130AB0909313022AE037ED43E25CE3609137023E
S1130AC0709138028091390290913A020E94A20BEF
S1130AD09B01AC01C701B6010E94A20B20911E022A
S1130AE030911F0240912002509121020E949709E7
S1130AF06B017C0120E030E04FE753E40E94970B48
S1130B0088236CF080E090E0AFE7B3E480931E02AA
S1130B1090931F02A0932002B09321021FC020E0F3
S1130B2030E04FE753ECC701B6010E94230A1816C0
S1130B304CF4C0921E02D0921F02E0922002F09266
S1130B4021020CC080E090E0AFE7B3EC80931E027A
S1130B5090931F02A0932002B093210281E090E0C1
S1130B600E94ED000A973CF1C0901002D09011024F
S1130B70E0901202F090130220913302309134027B
S1130B804091350250913602C701B6010E94960980
S1130B9060931A0270931B0280931C0290931D02AF
S1130BA0C0923302D0923402E0923502F0923602BF
S1130BB00E94E50008C010921A0210921B021092C3
S1130BC01C0210921D0220911002309111024091DA
S1130BD01202509113026091460270914702809173
S1130BE04802909149020E94A20B20911E0230916A
S1130BF01F0240912002509121020E9497096B012B
S1130C007C012DEC3CEC4CEC5DE360912202709194
S1130C10230280912402909125020E94A20B20912C
S1130C201A0230911B0240911C0250911D020E9435
S1130C30A20B9B01AC01C701B6010E949709609306
S1130C402D0270932E0280932F0290933002FF9016
S1130C50EF90DF90CF900895E1ECF0E010821092D5
S1130C60C00086E08093C2008FE58093C400109298
S1130C70C50088E9808308951F920F920FB60F92E2
S1130C8011240BB60F922F933F934F935F936F935F
S1130C907F938F939F93AF93BF93EF93FF93809131
S1130CA0C60080933B028733B9F480914602909149
S1130CB04702A0914802B091490280931602909392
S1130CC01702A0931802B093190281E090E0909368
S1130CD015028093140209C18833B9F48091370254
S1130CE090913802A0913902B0913A028093160291
S1130CF090931702A0931802B093190282E090E037
S1130D009093150280931402F0C08933B9F4809152
S1130D10220290912302A0912402B0912502809393
S1130D20160290931702A0931802B093190283E05D
S1130D3090E09093150280931402D7C08033B9F4E5
S1130D4080910C0290910D02A0910E02B0910F02BD
S1130D508093160290931702A0931802B09319027D
S1130D6084E090E09093150280931402BEC0813613
S1130D7069F480E090E0A8E4B2E4809308029093E0
S1130D800902A0930A02B0930B02AFC0833749F45F
S1130D90109208021092090210920A0210920B0299
S1130DA0A4C0843669F480E090E0A8E4B2EC8093B7
S1130DB0080290930902A0930A02B0930B0295C013
S1130DC08133B9F420E030E040E85FE3609116023B
S1130DD07091170280911802909119020E9497094C
S1130DE0609316027093170280931802909319026D
S1130DF07CC08233B9F420E030E040EA50E46091F2
S1130E0016027091170280911802909119020E94A3
S1130E1097096093160270931702809318029093B7
S1130E20190263C08433B9F420E030E040E85FE3A2
S1130E306091160270911702809118029091190224
S1130E400E94960960931602709317028093180209
S1130E50909319024AC08533B9F420E030E040EAA7
S1130E6050E46091160270911702809118029091DB
S1130E7019020E94960960931602709317028093D8
S1130E8018029093190231C08333B9F42DEC3CEC71
S1130E904CEC5DE360911602709117028091180288
S1130EA0909119020E949709609316027093170299
S1130EB0809318029093190218C08633B1F42DEC74
S1130EC03CEC4CEC5DE3609116027091170280914A
S1130ED01802909119020E94960960931602709369
S1130EE01702809318029093190280911402909132
S1130EF015028130910501F5609116027091170277
S1130F0080911802909119026093460270934702EF
S1130F10809348029093490220E030E040E251E49B
S1130F200E94A20B0E94940A24E030E0AB0161E02D
S1130F3081E00E94EA0169C08230910501F5609167
S1130F401602709117028091180290911902609311
S1130F503702709338028093390290933A0220E06A
S1130F6030E040E251E40E94A20B0E94940A24E083
S1130F7030E0AB0166E081E00E94EA0146C08330C4
S1130F80910501F560911602709117028091180283
S1130F909091190260932202709323028093240299
S1130FA09093250220E030E040E251E40E94A20B3D
S1130FB00E94940A24E030E0AB016BE081E00E94DF
S1130FC0EA0123C0049709F5609116027091170293
S1130FD0809118029091190260930C0270930D0293
S1130FE080930E0290930F0220E030E040E251E43F
S1130FF00E94A20B0E948F0A23E030E0AB0161E063
S113100070E082E090E00E948D03FF91EF91BF9128
S1131010AF919F918F917F916F915F914F913F918C
S11310202F910F900BBE0F900FBE0F901F9018952D
S1131030AAE0B1E08C91846E8C93EBE0F1E08081C6
S1131040887180838C9188618C938081886180838E
S11310500895E1E2F1E010828FEF8093250191E0A1
S113106090932401109229018093280110922B015E
S113107080932A0181EA80932001109222018DE05D
S113108080830895CF92DF92EF92FF92CF93DF9304
S113109010922901682F70E080E090E00E94C20A5B
S11310A06B017C01209108023091090240910A02EF
S11310B050910B020E9497090E94940AC8E2D1E061
S11310C0688310922B0126E636E646E65FE3C70105
S11310D0B6010E94A20B20910802309109024091AE
S11310E00A0250910B020E9496090E94940A688396
S11310F0DF91CF91FF90EF90DF90CF900895EBE0D8
S1131100F1E090819871892B8083089580EA0E9490
S11311107F08089584E40E947F080895F8940E944B
S1131120E6020E9414010E947E010E9418080E9497
S11311302908789408950E94C1030E94A0040E9483
S11311408E080E942C060E94E5008AE999E9A1E133
S1131150B1E48093460290934702A0934802B0936F
S1131160490280E090E0A0E0B1E4809337029093DC
S11311703802A0933902B0933A0280E090E0A0EAEA
S1131180B0E48093220290932302A0932402B093AC
S1131190250224E030E04BE550E061E081E00E946C
S11311A0EA0120E030E040E251E4609137027091BE
S11311B038028091390290913A020E94A20B0E9457
S11311C0940A24E030E0AB0166E081E00E94EA0189
S11311D020E030E040E251E4609122027091230269
S11311E080912402909125020E94A20B0E94940AED
S11311F024E030E0AB016BE081E00E94EA01772457
S11312007A9400E0C6ECD0E01FEF0E94CC037C018E
S11312100E9421054B015C01B701882777FD809569
S1131220982F0E94C20A2DEC3CEC4CEC5DE30E942A
S1131230A20BA50194010E94A5044B015C016093DB
S11312403E0270933F0280934002909341020E94B9
S11312503A05C0902D02D0902E02E0902F02F0901B
S1131260300220E030E0A901C701B6010E94970BCB
S113127018169CF420E030E0A901C701B6010E94D1
S113128097090E94940ACB016F3F710508F0872DDE
S11312900E9442080E9486081BC020E030E0A90199
S11312A0C701B6010E94230A882394F4A70196017A
S11312B060E070E0CB010E9496090E94940ACB0181
S11312C06F3F710508F0872D0E9442080E948A082A
S11312D0188386E69EE00197F1F7000020E030E0F5
S11312E048EC52E4C501B4010E9497090E94940A93
S11312F0688386E69EE00197F1F7000020E030E085
S113130040E05FE360912D0270912E0280912F02E4
S1131310909130020E94A20B20E030E04EEF52E4A4
S11313200E9497090E94940A68836FCF5058BB2784
S1131330AA270ED0C2C1B3D130F0B8D120F031F415
S11313409F3F11F41EF483C10EF4E095E7FB79C1CD
S1131350E92FC4D180F3BA1762077307840795078E
S113136018F071F49EF5DCC10EF4E0950B2EBA2F43
S1131370A02D0B01B90190010C01CA01A001112497
S1131380FF27591B99F0593F50F4503E68F11A1643
S1131390F040A22F232F342F4427585FF3CF4695D4
S11313A037952795A795F0405395C9F77EF41F16F6
S11313B0BA0B620B730B840BBAF09150A1F0FF0FC0
S11313C0BB1F661F771F881FC2F70EC0BA0F621FAC
S11313D0731F841F48F4879577956795B795F7959C
S11313E09E3F08F0B3CF9395880F08F09927EE0F2E
S11313F0979587950895DF93DD27B92FBF7740E848
S11314005FE31616170648075B0710F4D92F93D12C
S11314109F938F937F936F93F8D1E4EEF0E01AD10A
S11314204CD12F913F914F915F9198D1DD2349F099
S11314309058A2EA2AED3FE049EC5FE3D0785D27BB
S113144087DFDF913AC1D9D008F481E008950CD048
S113145034C12CD140F023D130F021F45F3F19F096
S1131460F0C051115EC1F3C039D198F39923C9F387
S11314705523B1F3951B550BBB27AA276217730796
S1131480840738F09F5F5F4F220F331F441FAA1F4A
S1131490A9F333D00E2E3AF0E0E830D0915050400A
S11314A0E695001CCAF729D0FE2F27D0660F771FB8
S11314B0881FBB1F261737074807AB07B0E809F09A
S11314C0BB0B802DBF01FF2793585F4F2AF09E3F2F
S11314D0510568F0B6C025C15F3FECF3983EDCF3DC
S11314E0869577956795B795F7959F5FC9F7880FA8
S11314F0911D9695879597F90895E1E0660F771FFA
S1131500881FBB1F621773078407BA0720F0621B8A
S1131510730B840BBA0BEE1F88F7E095089504D083
S11315206894B111FEC00895E1D088F09F5790F0FF
S1131530B92F9927B751A0F0D1F0660F771F881FF4
S1131540991F1AF0BA95C9F712C0B13081F0E8D0EA
S1131550B1E00895E5C0672F782F8827B85F39F088
S1131560B93FCCF3869577956795B395D9F73EF453
S113157090958095709561957F4F8F4F9F4F0895FB
S1131580E89409C097FB3EF4909580957095619519
S11315907F4F8F4F9F4F9923A9F0F92F96E9BB27CF
S11315A09395F695879577956795B795F111F8CF4B
S11315B0FAF4BB0F11F460FF1BC06F5F7F4F8F4FB6
S11315C09F4F16C0882311F096E911C0772321F0AC
S11315D09EE8872F762F05C0662371F096E8862F44
S11315E070E060E02AF09A95660F771F881FDAF79B
S11315F0880F9695879597F90895990F0008550FC8
S1131600AA0BE0E8FEEF16161706E807F907C0F084
S113161012161306E407F50798F0621B730B840B8C
S1131620950B39F40A2661F0232B242B252B21F466
S113163008950A2609F4A140A6958FEF811D811D06
S1131640089597F99F6780E870E060E008959FEF40
S113165080EC0895DF93CF931F930F93FF92EF9243
S1131660DF927B018C01689405C0DA2EEF0176D0FD
S1131670FE01E894A5912591359145915591AEF3DC
S1131680EF0166DEFE019701A801DA9479F7DF9095
S1131690EF90FF900F911F91CF91DF910895002457
S11316A00A941616170618060906089500240A94C3
S11316B012161306140605060895092E0394000C49
S11316C011F4882352F0BB0F40F4BF2B11F460FFD8
S11316D004C06F5F7F4F8F4F9F4F089557FD905801
S11316E0440F551F59F05F3F71F04795880F97FBE2
S11316F0991F61F09F3F79F087950895121613069C
S11317001406551FF2CF4695F1DF08C016161706CA
S11317101806991FF1CF86957105610508940895FF
S1131720E894BB2766277727CB0197F9089565DFEF
S113173008F48FEF08959B01AC0160E070E080E84D
S11317409FE385CE0BD0B9CFAADF28F0AFDF18F026
S1131750952309F076CF7BCF1124E3CFBFDFA0F32D
S1131760959FD1F3950F50E0551F629FF001729F32
S1131770BB27F00DB11D639FAA27F00DB11DAA1F51
S1131780649F6627B00DA11D661F829F2227B00D9E
S1131790A11D621F739FB00DA11D621F839FA00D29
S11317A0611D221F749F3327A00D611D231F849F79
S11317B0600D211D822F762F6A2F11249F575040D0
S11317C08AF0E1F088234AF0EE0FFF1FBB1F661F6B
S11317D0771F881F91505040A9F79E3F510570F024
S11317E030CF9FCF5F3FECF3983EDCF3869577953F
S11317F06795B795F795E7959F5FC1F7FE2B880F1F
S1131800911D9695879597F908959B01AC019ACF00
S113181097FB072E16F4009407D077FD09D00E9499
S11318204A0C07FC05D03EF4909581959F4F08958E
S1131830709561957F4F0895052E97FB1EF40094D3
S11318400E94330C57FD07D00E945E0C07FC03D0A6
S11318504EF40C94330C50954095309521953F4FA0
S11318604F4F5F4F089590958095709561957F4F88
S11318708F4F9F4F0895A29FB001B39FC001A39FB4
S1131880700D811D1124911DB29F700D811D1124B5
S1131890911D0895AA1BBB1B51E107C0AA1FBB1FC2
S11318A0A617B70710F0A61BB70B881F991F5A95E8
S11318B0A9F780959095BC01CD010895A1E21A2E57
S11318C0AA1BBB1BFD010DC0AA1FBB1FEE1FFF1FE0
S11318D0A217B307E407F50720F0A21BB30BE40B30
S11318E0F50B661F771F881F991F1A9469F7609577
S11318F07095809590959B01AC01BD01CF01089531
S1071900F894FFCF85
S10719042D002B0083
S9030000FC
